{
  "_format": "hh-sol-artifact-1",
  "contractName": "CrowdFunding",
  "sourceName": "contracts/CrowdFunding.sol",
  "abi": [
    {
      "inputs": [
        {
          "internalType": "string",
          "name": "_title",
          "type": "string"
        },
        {
          "internalType": "string",
          "name": "_description",
          "type": "string"
        },
        {
          "internalType": "uint256",
          "name": "_target",
          "type": "uint256"
        },
        {
          "internalType": "uint256",
          "name": "_deadline",
          "type": "uint256"
        }
      ],
      "name": "createCampaign",
      "outputs": [
        {
          "internalType": "uint256",
          "name": "",
          "type": "uint256"
        }
      ],
      "stateMutability": "nonpayable",
      "type": "function"
    },
    {
      "inputs": [
        {
          "internalType": "uint256",
          "name": "_campaignId",
          "type": "uint256"
        }
      ],
      "name": "donateToCampaign",
      "outputs": [],
      "stateMutability": "payable",
      "type": "function"
    },
    {
      "inputs": [
        {
          "internalType": "uint256",
          "name": "",
          "type": "uint256"
        }
      ],
      "name": "campaigns",
      "outputs": [
        {
          "internalType": "address payable",
          "name": "owner",
          "type": "address"
        },
        {
          "internalType": "string",
          "name": "title",
          "type": "string"
        },
        {
          "internalType": "string",
          "name": "description",
          "type": "string"
        },
        {
          "internalType": "uint256",
          "name": "target",
          "type": "uint256"
        },
        {
          "internalType": "uint256",
          "name": "amountCollected",
          "type": "uint256"
        },
        {
          "internalType": "uint256",
          "name": "deadline",
          "type": "uint256"
        }
      ],
      "stateMutability": "view",
      "type": "function"
    },
    {
      "inputs": [],
      "name": "getCampaigns",
      "outputs": [
        {
          "components": [
            {
              "internalType": "address payable",
              "name": "owner",
              "type": "address"
            },
            {
              "internalType": "string",
              "name": "title",
              "type": "string"
            },
            {
              "internalType": "string",
              "name": "description",
              "type": "string"
            },
            {
              "internalType": "uint256",
              "name": "target",
              "type": "uint256"
            },
            {
              "internalType": "uint256",
              "name": "amountCollected",
              "type": "uint256"
            },
            {
              "internalType": "uint256",
              "name": "deadline",
              "type": "uint256"
            },
            {
              "internalType": "address[]",
              "name": "donators",
              "type": "address[]"
            },
            {
              "internalType": "uint256[]",
              "name": "donations",
              "type": "uint256[]"
            }
          ],
          "internalType": "struct CrowdFunding.Campaign[]",
          "name": "",
          "type": "tuple[]"
        }
      ],
      "stateMutability": "view",
      "type": "function"
    },
    {
      "inputs": [
        {
          "internalType": "uint256",
          "name": "_campaignId",
          "type": "uint256"
        }
      ],
      "name": "getDonators",
      "outputs": [
        {
          "internalType": "address[]",
          "name": "",
          "type": "address[]"
        },
        {
          "internalType": "uint256[]",
          "name": "",
          "type": "uint256[]"
        }
      ],
      "stateMutability": "view",
      "type": "function"
    },
    {
      "inputs": [],
      "name": "numberOfCampaigns",
      "outputs": [
        {
          "internalType": "uint256",
          "name": "",
          "type": "uint256"
        }
      ],
      "stateMutability": "view",
      "type": "function"
    }
  ],
  "bytecode": "0x6080604052600060015534801561001557600080fd5b506118e1806100256000396000f3fe6080604052600436106100555760003560e01c8063075843c31461005a57806307ca140d146100975780630fa91fa9146100c2578063141961bc1461010057806342a4fda814610142578063a6b036331461015e575b600080fd5b34801561006657600080fd5b50610081600480360381019061007c9190610c89565b610189565b60405161008e9190610d4b565b60405180910390f35b3480156100a357600080fd5b506100ac610299565b6040516100b99190610d4b565b60405180910390f35b3480156100ce57600080fd5b506100e960048036038101906100e49190610d66565b61029f565b6040516100f7929190610f21565b60405180910390f35b34801561010c57600080fd5b5061012760048036038101906101229190610d66565b6103af565b60405161013996959493929190610fe6565b60405180910390f35b61015c60048036038101906101579190610d66565b61051b565b005b34801561016a57600080fd5b50610173610708565b6040516101809190611313565b60405180910390f35b600080600080600154815260200190815260200160002090504283106101e4576040517f08c379a00000000000000000000000000000000000000000000000000000000081526004016101db90611381565b60405180910390fd5b868160000160006101000a81548173ffffffffffffffffffffffffffffffffffffffff021916908373ffffffffffffffffffffffffffffffffffffffff1602179055508581600101908161023891906115ad565b508481600201908161024a91906115ad565b50838160030181905550828160050181905550600081600401819055506001600081548092919061027a906116ae565b91905055506001805461028d91906116f6565b91505095945050505050565b60015481565b6060806000808481526020019081526020016000206006016000808581526020019081526020016000206007018180548060200260200160405190810160405280929190818152602001828054801561034d57602002820191906000526020600020905b8160009054906101000a900473ffffffffffffffffffffffffffffffffffffffff1673ffffffffffffffffffffffffffffffffffffffff1681526020019060010190808311610303575b505050505091508080548060200260200160405190810160405280929190818152602001828054801561039f57602002820191906000526020600020905b81548152602001906001019080831161038b575b5050505050905091509150915091565b60006020528060005260406000206000915090508060000160009054906101000a900473ffffffffffffffffffffffffffffffffffffffff16908060010180546103f8906113d0565b80601f0160208091040260200160405190810160405280929190818152602001828054610424906113d0565b80156104715780601f1061044657610100808354040283529160200191610471565b820191906000526020600020905b81548152906001019060200180831161045457829003601f168201915b505050505090806002018054610486906113d0565b80601f01602080910402602001604051908101604052809291908181526020018280546104b2906113d0565b80156104ff5780601f106104d4576101008083540402835291602001916104ff565b820191906000526020600020905b8154815290600101906020018083116104e257829003601f168201915b5050505050908060030154908060040154908060050154905086565b6000806000838152602001908152602001600020905042816005015411610577576040517f08c379a000000000000000000000000000000000000000000000000000000000815260040161056e90611776565b60405180910390fd5b80600301548160040154106105c1576040517f08c379a00000000000000000000000000000000000000000000000000000000081526004016105b8906117e2565b60405180910390fd5b60008160000160009054906101000a900473ffffffffffffffffffffffffffffffffffffffff1673ffffffffffffffffffffffffffffffffffffffff163460405161060b90611833565b60006040518083038185875af1925050503d8060008114610648576040519150601f19603f3d011682016040523d82523d6000602084013e61064d565b606091505b505090508015610703573482600401600082825461066b9190611848565b9250508190555081600601339080600181540180825580915050600190039060005260206000200160009091909190916101000a81548173ffffffffffffffffffffffffffffffffffffffff021916908373ffffffffffffffffffffffffffffffffffffffff160217905550816007013490806001815401808255809150506001900390600052602060002001600090919091909150555b505050565b6060600060015467ffffffffffffffff81111561072857610727610b28565b5b60405190808252806020026020018201604052801561076157816020015b61074e610a40565b8152602001906001900390816107465790505b50905060005b600154811015610a3857600080828152602001908152602001600020604051806101000160405290816000820160009054906101000a900473ffffffffffffffffffffffffffffffffffffffff1673ffffffffffffffffffffffffffffffffffffffff1673ffffffffffffffffffffffffffffffffffffffff1681526020016001820180546107f5906113d0565b80601f0160208091040260200160405190810160405280929190818152602001828054610821906113d0565b801561086e5780601f106108435761010080835404028352916020019161086e565b820191906000526020600020905b81548152906001019060200180831161085157829003601f168201915b50505050508152602001600282018054610887906113d0565b80601f01602080910402602001604051908101604052809291908181526020018280546108b3906113d0565b80156109005780601f106108d557610100808354040283529160200191610900565b820191906000526020600020905b8154815290600101906020018083116108e357829003601f168201915b50505050508152602001600382015481526020016004820154815260200160058201548152602001600682018054806020026020016040519081016040528092919081815260200182805480156109ac57602002820191906000526020600020905b8160009054906101000a900473ffffffffffffffffffffffffffffffffffffffff1673ffffffffffffffffffffffffffffffffffffffff1681526020019060010190808311610962575b5050505050815260200160078201805480602002602001604051908101604052809291908181526020018280548015610a0457602002820191906000526020600020905b8154815260200190600101908083116109f0575b505050505081525050828281518110610a2057610a1f61187c565b5b60200260200101819052508080600101915050610767565b508091505090565b604051806101000160405280600073ffffffffffffffffffffffffffffffffffffffff168152602001606081526020016060815260200160008152602001600081526020016000815260200160608152602001606081525090565b6000604051905090565b600080fd5b600080fd5b600073ffffffffffffffffffffffffffffffffffffffff82169050919050565b6000610ada82610aaf565b9050919050565b610aea81610acf565b8114610af557600080fd5b50565b600081359050610b0781610ae1565b92915050565b600080fd5b600080fd5b6000601f19601f8301169050919050565b7f4e487b7100000000000000000000000000000000000000000000000000000000600052604160045260246000fd5b610b6082610b17565b810181811067ffffffffffffffff82111715610b7f57610b7e610b28565b5b80604052505050565b6000610b92610a9b565b9050610b9e8282610b57565b919050565b600067ffffffffffffffff821115610bbe57610bbd610b28565b5b610bc782610b17565b9050602081019050919050565b82818337600083830152505050565b6000610bf6610bf184610ba3565b610b88565b905082815260208101848484011115610c1257610c11610b12565b5b610c1d848285610bd4565b509392505050565b600082601f830112610c3a57610c39610b0d565b5b8135610c4a848260208601610be3565b91505092915050565b6000819050919050565b610c6681610c53565b8114610c7157600080fd5b50565b600081359050610c8381610c5d565b92915050565b600080600080600060a08688031215610ca557610ca4610aa5565b5b6000610cb388828901610af8565b955050602086013567ffffffffffffffff811115610cd457610cd3610aaa565b5b610ce088828901610c25565b945050604086013567ffffffffffffffff811115610d0157610d00610aaa565b5b610d0d88828901610c25565b9350506060610d1e88828901610c74565b9250506080610d2f88828901610c74565b9150509295509295909350565b610d4581610c53565b82525050565b6000602082019050610d606000830184610d3c565b92915050565b600060208284031215610d7c57610d7b610aa5565b5b6000610d8a84828501610c74565b91505092915050565b600081519050919050565b600082825260208201905092915050565b6000819050602082019050919050565b6000610dca82610aaf565b9050919050565b610dda81610dbf565b82525050565b6000610dec8383610dd1565b60208301905092915050565b6000602082019050919050565b6000610e1082610d93565b610e1a8185610d9e565b9350610e2583610daf565b8060005b83811015610e56578151610e3d8882610de0565b9750610e4883610df8565b925050600181019050610e29565b5085935050505092915050565b600081519050919050565b600082825260208201905092915050565b6000819050602082019050919050565b610e9881610c53565b82525050565b6000610eaa8383610e8f565b60208301905092915050565b6000602082019050919050565b6000610ece82610e63565b610ed88185610e6e565b9350610ee383610e7f565b8060005b83811015610f14578151610efb8882610e9e565b9750610f0683610eb6565b925050600181019050610ee7565b5085935050505092915050565b60006040820190508181036000830152610f3b8185610e05565b90508181036020830152610f4f8184610ec3565b90509392505050565b610f6181610acf565b82525050565b600081519050919050565b600082825260208201905092915050565b60005b83811015610fa1578082015181840152602081019050610f86565b60008484015250505050565b6000610fb882610f67565b610fc28185610f72565b9350610fd2818560208601610f83565b610fdb81610b17565b840191505092915050565b600060c082019050610ffb6000830189610f58565b818103602083015261100d8188610fad565b905081810360408301526110218187610fad565b90506110306060830186610d3c565b61103d6080830185610d3c565b61104a60a0830184610d3c565b979650505050505050565b600081519050919050565b600082825260208201905092915050565b6000819050602082019050919050565b61108a81610acf565b82525050565b600082825260208201905092915050565b60006110ac82610f67565b6110b68185611090565b93506110c6818560208601610f83565b6110cf81610b17565b840191505092915050565b600082825260208201905092915050565b60006110f682610d93565b61110081856110da565b935061110b83610daf565b8060005b8381101561113c5781516111238882610de0565b975061112e83610df8565b92505060018101905061110f565b5085935050505092915050565b600082825260208201905092915050565b600061116582610e63565b61116f8185611149565b935061117a83610e7f565b8060005b838110156111ab5781516111928882610e9e565b975061119d83610eb6565b92505060018101905061117e565b5085935050505092915050565b6000610100830160008301516111d16000860182611081565b50602083015184820360208601526111e982826110a1565b9150506040830151848203604086015261120382826110a1565b91505060608301516112186060860182610e8f565b50608083015161122b6080860182610e8f565b5060a083015161123e60a0860182610e8f565b5060c083015184820360c086015261125682826110eb565b91505060e083015184820360e0860152611270828261115a565b9150508091505092915050565b600061128983836111b8565b905092915050565b6000602082019050919050565b60006112a982611055565b6112b38185611060565b9350836020820285016112c585611071565b8060005b8581101561130157848403895281516112e2858261127d565b94506112ed83611291565b925060208a019950506001810190506112c9565b50829750879550505050505092915050565b6000602082019050818103600083015261132d818461129e565b905092915050565b7f446561646c696e652073686f756c6420626520696e2074686520667574757265600082015250565b600061136b602083610f72565b915061137682611335565b602082019050919050565b6000602082019050818103600083015261139a8161135e565b9050919050565b7f4e487b7100000000000000000000000000000000000000000000000000000000600052602260045260246000fd5b600060028204905060018216806113e857607f821691505b6020821081036113fb576113fa6113a1565b5b50919050565b60008190508160005260206000209050919050565b60006020601f8301049050919050565b600082821b905092915050565b6000600883026114637fffffffffffffffffffffffffffffffffffffffffffffffffffffffffffffffff82611426565b61146d8683611426565b95508019841693508086168417925050509392505050565b6000819050919050565b60006114aa6114a56114a084610c53565b611485565b610c53565b9050919050565b6000819050919050565b6114c48361148f565b6114d86114d0826114b1565b848454611433565b825550505050565b600090565b6114ed6114e0565b6114f88184846114bb565b505050565b5b8181101561151c576115116000826114e5565b6001810190506114fe565b5050565b601f8211156115615761153281611401565b61153b84611416565b8101602085101561154a578190505b61155e61155685611416565b8301826114fd565b50505b505050565b600082821c905092915050565b600061158460001984600802611566565b1980831691505092915050565b600061159d8383611573565b9150826002028217905092915050565b6115b682610f67565b67ffffffffffffffff8111156115cf576115ce610b28565b5b6115d982546113d0565b6115e4828285611520565b600060209050601f8311600181146116175760008415611605578287015190505b61160f8582611591565b865550611677565b601f19841661162586611401565b60005b8281101561164d57848901518255600182019150602085019450602081019050611628565b8683101561166a5784890151611666601f891682611573565b8355505b6001600288020188555050505b505050505050565b7f4e487b7100000000000000000000000000000000000000000000000000000000600052601160045260246000fd5b60006116b982610c53565b91507fffffffffffffffffffffffffffffffffffffffffffffffffffffffffffffffff82036116eb576116ea61167f565b5b600182019050919050565b600061170182610c53565b915061170c83610c53565b92508282039050818111156117245761172361167f565b5b92915050565b7f43616d706169676e20697320636c6f7365640000000000000000000000000000600082015250565b6000611760601283610f72565b915061176b8261172a565b602082019050919050565b6000602082019050818103600083015261178f81611753565b9050919050565b7f43616d706169676e20697320616c72656164792066756e646564000000000000600082015250565b60006117cc601a83610f72565b91506117d782611796565b602082019050919050565b600060208201905081810360008301526117fb816117bf565b9050919050565b600081905092915050565b50565b600061181d600083611802565b91506118288261180d565b600082019050919050565b600061183e82611810565b9150819050919050565b600061185382610c53565b915061185e83610c53565b92508282019050808211156118765761187561167f565b5b92915050565b7f4e487b7100000000000000000000000000000000000000000000000000000000600052603260045260246000fdfea264697066735822122097b343da9096c10f330ef2611d988740d0d3f4f839de0d0764916d5fb7a028c964736f6c63430008180033",
  "linkReferences": {},
  "deployedLinkReferences": {}
}